{
  "_format": "hh-sol-artifact-1",
  "contractName": "PaymentContract",
  "sourceName": "contracts/PaymentContract.sol",
  "abi": [
    {
      "inputs": [
        {
          "internalType": "address",
          "name": "_accessControl",
          "type": "address"
        },
        {
          "internalType": "address",
          "name": "_genomeRegistry",
          "type": "address"
        }
      ],
      "stateMutability": "nonpayable",
      "type": "constructor"
    },
    {
      "anonymous": false,
      "inputs": [
        {
          "indexed": true,
          "internalType": "address",
          "name": "owner",
          "type": "address"
        },
        {
          "indexed": false,
          "internalType": "uint256",
          "name": "amount",
          "type": "uint256"
        }
      ],
      "name": "OwnerWithdrawal",
      "type": "event"
    },
    {
      "anonymous": false,
      "inputs": [
        {
          "indexed": true,
          "internalType": "address",
          "name": "previousOwner",
          "type": "address"
        },
        {
          "indexed": true,
          "internalType": "address",
          "name": "newOwner",
          "type": "address"
        }
      ],
      "name": "OwnershipTransferred",
      "type": "event"
    },
    {
      "anonymous": false,
      "inputs": [
        {
          "indexed": true,
          "internalType": "bytes32",
          "name": "requestId",
          "type": "bytes32"
        },
        {
          "indexed": false,
          "internalType": "address",
          "name": "researcher",
          "type": "address"
        },
        {
          "indexed": false,
          "internalType": "address",
          "name": "owner",
          "type": "address"
        },
        {
          "indexed": false,
          "internalType": "uint256",
          "name": "amount",
          "type": "uint256"
        }
      ],
      "name": "PaymentProcessed",
      "type": "event"
    },
    {
      "anonymous": false,
      "inputs": [
        {
          "indexed": false,
          "internalType": "uint256",
          "name": "newFeeBps",
          "type": "uint256"
        }
      ],
      "name": "PlatformFeeUpdated",
      "type": "event"
    },
    {
      "inputs": [],
      "name": "accessControl",
      "outputs": [
        {
          "internalType": "contract IAccessControl",
          "name": "",
          "type": "address"
        }
      ],
      "stateMutability": "view",
      "type": "function"
    },
    {
      "inputs": [],
      "name": "genomeRegistry",
      "outputs": [
        {
          "internalType": "contract IGenomeRegistry2",
          "name": "",
          "type": "address"
        }
      ],
      "stateMutability": "view",
      "type": "function"
    },
    {
      "inputs": [
        {
          "internalType": "address",
          "name": "_owner",
          "type": "address"
        }
      ],
      "name": "getOwnerEarnings",
      "outputs": [
        {
          "internalType": "uint256",
          "name": "",
          "type": "uint256"
        }
      ],
      "stateMutability": "view",
      "type": "function"
    },
    {
      "inputs": [],
      "name": "owner",
      "outputs": [
        {
          "internalType": "address",
          "name": "",
          "type": "address"
        }
      ],
      "stateMutability": "view",
      "type": "function"
    },
    {
      "inputs": [
        {
          "internalType": "address",
          "name": "",
          "type": "address"
        }
      ],
      "name": "ownerEarnings",
      "outputs": [
        {
          "internalType": "uint256",
          "name": "",
          "type": "uint256"
        }
      ],
      "stateMutability": "view",
      "type": "function"
    },
    {
      "inputs": [
        {
          "internalType": "address",
          "name": "",
          "type": "address"
        }
      ],
      "name": "ownerTotalAccesses",
      "outputs": [
        {
          "internalType": "uint256",
          "name": "",
          "type": "uint256"
        }
      ],
      "stateMutability": "view",
      "type": "function"
    },
    {
      "inputs": [
        {
          "internalType": "bytes32",
          "name": "",
          "type": "bytes32"
        }
      ],
      "name": "payments",
      "outputs": [
        {
          "internalType": "bytes32",
          "name": "requestId",
          "type": "bytes32"
        },
        {
          "internalType": "bytes32",
          "name": "datasetId",
          "type": "bytes32"
        },
        {
          "internalType": "address",
          "name": "researcher",
          "type": "address"
        },
        {
          "internalType": "address",
          "name": "dataOwner",
          "type": "address"
        },
        {
          "internalType": "uint256",
          "name": "amount",
          "type": "uint256"
        },
        {
          "internalType": "uint256",
          "name": "platformFee",
          "type": "uint256"
        },
        {
          "internalType": "uint256",
          "name": "ownerPayout",
          "type": "uint256"
        },
        {
          "internalType": "uint256",
          "name": "timestamp",
          "type": "uint256"
        },
        {
          "internalType": "bool",
          "name": "processed",
          "type": "bool"
        }
      ],
      "stateMutability": "view",
      "type": "function"
    },
    {
      "inputs": [],
      "name": "platformFeeBps",
      "outputs": [
        {
          "internalType": "uint256",
          "name": "",
          "type": "uint256"
        }
      ],
      "stateMutability": "view",
      "type": "function"
    },
    {
      "inputs": [
        {
          "internalType": "bytes32",
          "name": "_requestId",
          "type": "bytes32"
        },
        {
          "internalType": "bytes32",
          "name": "_datasetId",
          "type": "bytes32"
        },
        {
          "internalType": "address",
          "name": "_dataOwner",
          "type": "address"
        },
        {
          "internalType": "string",
          "name": "_encryptedKeyHash",
          "type": "string"
        },
        {
          "internalType": "string",
          "name": "_ownerSig",
          "type": "string"
        }
      ],
      "name": "processPayment",
      "outputs": [],
      "stateMutability": "payable",
      "type": "function"
    },
    {
      "inputs": [],
      "name": "renounceOwnership",
      "outputs": [],
      "stateMutability": "nonpayable",
      "type": "function"
    },
    {
      "inputs": [
        {
          "internalType": "uint256",
          "name": "_feeBps",
          "type": "uint256"
        }
      ],
      "name": "setPlatformFee",
      "outputs": [],
      "stateMutability": "nonpayable",
      "type": "function"
    },
    {
      "inputs": [],
      "name": "totalPlatformRevenue",
      "outputs": [
        {
          "internalType": "uint256",
          "name": "",
          "type": "uint256"
        }
      ],
      "stateMutability": "view",
      "type": "function"
    },
    {
      "inputs": [
        {
          "internalType": "address",
          "name": "newOwner",
          "type": "address"
        }
      ],
      "name": "transferOwnership",
      "outputs": [],
      "stateMutability": "nonpayable",
      "type": "function"
    },
    {
      "inputs": [],
      "name": "withdraw",
      "outputs": [],
      "stateMutability": "nonpayable",
      "type": "function"
    },
    {
      "inputs": [],
      "name": "withdrawPlatformFees",
      "outputs": [],
      "stateMutability": "nonpayable",
      "type": "function"
    },
    {
      "stateMutability": "payable",
      "type": "receive"
    }
  ],
  "bytecode": "0x60806040526101f460025534801561001657600080fd5b50604051610e39380380610e39833981016040819052610035916100df565b61003e33610073565b60018055600780546001600160a01b039384166001600160a01b03199182161790915560088054929093169116179055610112565b600080546001600160a01b038381166001600160a01b0319831681178455604051919092169283917f8be0079c531659141344cd1fd0a4f28419497f9722a3daafe3b4186f6b6457e09190a35050565b80516001600160a01b03811681146100da57600080fd5b919050565b600080604083850312156100f257600080fd5b6100fb836100c3565b9150610109602084016100c3565b90509250929050565b610d18806101216000396000f3fe6080604052600436106100ec5760003560e01c8063715018a61161008a578063d0b7830b11610059578063d0b7830b14610322578063e937efc114610337578063f213edb914610364578063f2fde38b1461037a57600080fd5b8063715018a6146102995780637fd22804146102ae5780638da5cb5b146102ce57806393c8949f146102ec57600080fd5b806322dcd13e116100c657806322dcd13e146102205780633c4f3fb8146102445780633ccfd60b1461025757806351846e691461026c57600080fd5b80630716326d146100f857806312e8e2c3146101c657806313007d55146101e857600080fd5b366100f357005b600080fd5b34801561010457600080fd5b5061016f610113366004610ad1565b6003602081905260009182526040909120805460018201546002830154938301546004840154600585015460068601546007870154600890970154959794966001600160a01b0395861696949095169492939192909160ff1689565b60408051998a5260208a01989098526001600160a01b0396871697890197909752949093166060870152608086019190915260a085015260c084015260e08301521515610100820152610120015b60405180910390f35b3480156101d257600080fd5b506101e66101e1366004610ad1565b61039a565b005b3480156101f457600080fd5b50600754610208906001600160a01b031681565b6040516001600160a01b0390911681526020016101bd565b34801561022c57600080fd5b5061023660025481565b6040519081526020016101bd565b6101e6610252366004610b4f565b61041e565b34801561026357600080fd5b506101e6610752565b34801561027857600080fd5b50610236610287366004610be3565b60056020526000908152604090205481565b3480156102a557600080fd5b506101e6610888565b3480156102ba57600080fd5b50600854610208906001600160a01b031681565b3480156102da57600080fd5b506000546001600160a01b0316610208565b3480156102f857600080fd5b50610236610307366004610be3565b6001600160a01b031660009081526004602052604090205490565b34801561032e57600080fd5b506101e661089a565b34801561034357600080fd5b50610236610352366004610be3565b60046020526000908152604090205481565b34801561037057600080fd5b5061023660065481565b34801561038657600080fd5b506101e6610395366004610be3565b610955565b6103a26109ce565b6107d08111156103e35760405162461bcd60e51b81526020600482015260076024820152664d61782032302560c81b60448201526064015b60405180910390fd5b60028190556040518181527f45610d581145924dd7090a5017e5f2b1d6f42213bb2e95707ff86846bbfcb1ca9060200160405180910390a150565b610426610a28565b600034116104695760405162461bcd60e51b815260206004820152601060248201526f14185e5b595b9d081c995c5d5a5c995960821b60448201526064016103da565b60008781526003602052604090206008015460ff16156104ba5760405162461bcd60e51b815260206004820152600c60248201526b105b1c9958591e481c185a5960a21b60448201526064016103da565b6000612710600254346104cd9190610c1b565b6104d79190610c38565b905060006104e58234610c5a565b90506040518061012001604052808a8152602001898152602001336001600160a01b03168152602001886001600160a01b0316815260200134815260200183815260200182815260200142815260200160011515815250600360008b8152602001908152602001600020600082015181600001556020820151816001015560408201518160020160006101000a8154816001600160a01b0302191690836001600160a01b0316021790555060608201518160030160006101000a8154816001600160a01b0302191690836001600160a01b031602179055506080820151816004015560a0820151816005015560c0820151816006015560e082015181600701556101008201518160080160006101000a81548160ff0219169083151502179055509050508060046000896001600160a01b03166001600160a01b03168152602001908152602001600020600082825461063e9190610c6d565b90915550506001600160a01b038716600090815260056020526040812080546001929061066c908490610c6d565b9250508190555081600660008282546106859190610c6d565b9091555050600754604051630de5f9f960e41b81526001600160a01b039091169063de5f9f90906106c2908c908a908a908a908a90600401610ca9565b600060405180830381600087803b1580156106dc57600080fd5b505af11580156106f0573d6000803e3d6000fd5b5050604080513381526001600160a01b038b166020820152348183015290518c93507fc9359a92f9a975e66b71067b34500d736c077e6625f2be657708047901af6c2f92509081900360600190a2505061074960018055565b50505050505050565b61075a610a28565b33600090815260046020526040902054806107ad5760405162461bcd60e51b81526020600482015260136024820152724e6f7468696e6720746f20776974686472617760681b60448201526064016103da565b336000818152600460205260408082208290555190919083908381818185875af1925050503d80600081146107fe576040519150601f19603f3d011682016040523d82523d6000602084013e610803565b606091505b50509050806108465760405162461bcd60e51b815260206004820152600f60248201526e151c985b9cd9995c8819985a5b1959608a1b60448201526064016103da565b60405182815233907fa919fadcfa556a012bab31b15f596ea7ccd397adbf10e15f176db9055ab361c49060200160405180910390a2505061088660018055565b565b6108906109ce565b6108866000610a81565b6108a26109ce565b60068054600091829055906108bf6000546001600160a01b031690565b6001600160a01b03168260405160006040518083038185875af1925050503d8060008114610909576040519150601f19603f3d011682016040523d82523d6000602084013e61090e565b606091505b50509050806109515760405162461bcd60e51b815260206004820152600f60248201526e151c985b9cd9995c8819985a5b1959608a1b60448201526064016103da565b5050565b61095d6109ce565b6001600160a01b0381166109c25760405162461bcd60e51b815260206004820152602660248201527f4f776e61626c653a206e6577206f776e657220697320746865207a65726f206160448201526564647265737360d01b60648201526084016103da565b6109cb81610a81565b50565b6000546001600160a01b031633146108865760405162461bcd60e51b815260206004820181905260248201527f4f776e61626c653a2063616c6c6572206973206e6f7420746865206f776e657260448201526064016103da565b600260015403610a7a5760405162461bcd60e51b815260206004820152601f60248201527f5265656e7472616e637947756172643a207265656e7472616e742063616c6c0060448201526064016103da565b6002600155565b600080546001600160a01b038381166001600160a01b0319831681178455604051919092169283917f8be0079c531659141344cd1fd0a4f28419497f9722a3daafe3b4186f6b6457e09190a35050565b600060208284031215610ae357600080fd5b5035919050565b80356001600160a01b0381168114610b0157600080fd5b919050565b60008083601f840112610b1857600080fd5b50813567ffffffffffffffff811115610b3057600080fd5b602083019150836020828501011115610b4857600080fd5b9250929050565b600080600080600080600060a0888a031215610b6a57600080fd5b8735965060208801359550610b8160408901610aea565b9450606088013567ffffffffffffffff80821115610b9e57600080fd5b610baa8b838c01610b06565b909650945060808a0135915080821115610bc357600080fd5b50610bd08a828b01610b06565b989b979a50959850939692959293505050565b600060208284031215610bf557600080fd5b610bfe82610aea565b9392505050565b634e487b7160e01b600052601160045260246000fd5b8082028115828204841417610c3257610c32610c05565b92915050565b600082610c5557634e487b7160e01b600052601260045260246000fd5b500490565b81810381811115610c3257610c32610c05565b80820180821115610c3257610c32610c05565b81835281816020850137506000828201602090810191909152601f909101601f19169091010190565b858152606060208201526000610cc3606083018688610c80565b8281036040840152610cd6818587610c80565b9897505050505050505056fea264697066735822122082ad07a74445bfbac05d9ea06ae54b1632bd1c5c0b1a980a31c4558502ae40be64736f6c63430008130033",
  "linkReferences": {},
  "deployedLinkReferences": {}
}