{
  "_format": "hh-sol-artifact-1",
  "contractName": "GenomeRegistry",
  "sourceName": "contracts/GenomeRegistry.sol",
  "abi": [
    {
      "anonymous": false,
      "inputs": [
        {
          "indexed": false,
          "internalType": "string",
          "name": "actionType",
          "type": "string"
        },
        {
          "indexed": false,
          "internalType": "address",
          "name": "actor",
          "type": "address"
        },
        {
          "indexed": false,
          "internalType": "bytes32",
          "name": "datasetId",
          "type": "bytes32"
        },
        {
          "indexed": false,
          "internalType": "uint256",
          "name": "timestamp",
          "type": "uint256"
        }
      ],
      "name": "AuditLogCreated",
      "type": "event"
    },
    {
      "anonymous": false,
      "inputs": [
        {
          "indexed": true,
          "internalType": "bytes32",
          "name": "datasetId",
          "type": "bytes32"
        }
      ],
      "name": "DatasetDeactivated",
      "type": "event"
    },
    {
      "anonymous": false,
      "inputs": [
        {
          "indexed": true,
          "internalType": "bytes32",
          "name": "datasetId",
          "type": "bytes32"
        },
        {
          "indexed": false,
          "internalType": "uint256",
          "name": "newPrice",
          "type": "uint256"
        }
      ],
      "name": "DatasetPriceUpdated",
      "type": "event"
    },
    {
      "anonymous": false,
      "inputs": [
        {
          "indexed": true,
          "internalType": "bytes32",
          "name": "datasetId",
          "type": "bytes32"
        },
        {
          "indexed": true,
          "internalType": "address",
          "name": "owner",
          "type": "address"
        },
        {
          "indexed": false,
          "internalType": "string",
          "name": "ipfsCID",
          "type": "string"
        },
        {
          "indexed": false,
          "internalType": "uint256",
          "name": "price",
          "type": "uint256"
        }
      ],
      "name": "GenomeRegistered",
      "type": "event"
    },
    {
      "anonymous": false,
      "inputs": [
        {
          "indexed": true,
          "internalType": "address",
          "name": "previousOwner",
          "type": "address"
        },
        {
          "indexed": true,
          "internalType": "address",
          "name": "newOwner",
          "type": "address"
        }
      ],
      "name": "OwnershipTransferred",
      "type": "event"
    },
    {
      "anonymous": false,
      "inputs": [
        {
          "indexed": false,
          "internalType": "address",
          "name": "account",
          "type": "address"
        }
      ],
      "name": "Paused",
      "type": "event"
    },
    {
      "anonymous": false,
      "inputs": [
        {
          "indexed": false,
          "internalType": "address",
          "name": "account",
          "type": "address"
        }
      ],
      "name": "Unpaused",
      "type": "event"
    },
    {
      "inputs": [
        {
          "internalType": "string",
          "name": "_actionType",
          "type": "string"
        },
        {
          "internalType": "address",
          "name": "_actor",
          "type": "address"
        },
        {
          "internalType": "bytes32",
          "name": "_datasetId",
          "type": "bytes32"
        },
        {
          "internalType": "string",
          "name": "_signatureHash",
          "type": "string"
        }
      ],
      "name": "addAuditLog",
      "outputs": [],
      "stateMutability": "nonpayable",
      "type": "function"
    },
    {
      "inputs": [
        {
          "internalType": "uint256",
          "name": "",
          "type": "uint256"
        }
      ],
      "name": "allDatasetIds",
      "outputs": [
        {
          "internalType": "bytes32",
          "name": "",
          "type": "bytes32"
        }
      ],
      "stateMutability": "view",
      "type": "function"
    },
    {
      "inputs": [
        {
          "internalType": "uint256",
          "name": "",
          "type": "uint256"
        }
      ],
      "name": "auditLogs",
      "outputs": [
        {
          "internalType": "string",
          "name": "actionType",
          "type": "string"
        },
        {
          "internalType": "address",
          "name": "actor",
          "type": "address"
        },
        {
          "internalType": "bytes32",
          "name": "datasetId",
          "type": "bytes32"
        },
        {
          "internalType": "string",
          "name": "signatureHash",
          "type": "string"
        },
        {
          "internalType": "uint256",
          "name": "timestamp",
          "type": "uint256"
        }
      ],
      "stateMutability": "view",
      "type": "function"
    },
    {
      "inputs": [
        {
          "internalType": "bytes32",
          "name": "",
          "type": "bytes32"
        }
      ],
      "name": "datasets",
      "outputs": [
        {
          "internalType": "bytes32",
          "name": "datasetHash",
          "type": "bytes32"
        },
        {
          "internalType": "string",
          "name": "ipfsCID",
          "type": "string"
        },
        {
          "internalType": "address",
          "name": "owner",
          "type": "address"
        },
        {
          "internalType": "uint256",
          "name": "timestamp",
          "type": "uint256"
        },
        {
          "internalType": "uint256",
          "name": "price",
          "type": "uint256"
        },
        {
          "internalType": "bool",
          "name": "isActive",
          "type": "bool"
        },
        {
          "internalType": "string",
          "name": "signatureHash",
          "type": "string"
        },
        {
          "internalType": "string",
          "name": "metadata",
          "type": "string"
        },
        {
          "internalType": "uint256",
          "name": "accessCount",
          "type": "uint256"
        }
      ],
      "stateMutability": "view",
      "type": "function"
    },
    {
      "inputs": [
        {
          "internalType": "bytes32",
          "name": "_datasetId",
          "type": "bytes32"
        }
      ],
      "name": "deactivateDataset",
      "outputs": [],
      "stateMutability": "nonpayable",
      "type": "function"
    },
    {
      "inputs": [],
      "name": "getAllDatasets",
      "outputs": [
        {
          "internalType": "bytes32[]",
          "name": "",
          "type": "bytes32[]"
        }
      ],
      "stateMutability": "view",
      "type": "function"
    },
    {
      "inputs": [],
      "name": "getAuditLogs",
      "outputs": [
        {
          "components": [
            {
              "internalType": "string",
              "name": "actionType",
              "type": "string"
            },
            {
              "internalType": "address",
              "name": "actor",
              "type": "address"
            },
            {
              "internalType": "bytes32",
              "name": "datasetId",
              "type": "bytes32"
            },
            {
              "internalType": "string",
              "name": "signatureHash",
              "type": "string"
            },
            {
              "internalType": "uint256",
              "name": "timestamp",
              "type": "uint256"
            }
          ],
          "internalType": "struct GenomeRegistry.AuditLog[]",
          "name": "",
          "type": "tuple[]"
        }
      ],
      "stateMutability": "view",
      "type": "function"
    },
    {
      "inputs": [
        {
          "internalType": "bytes32",
          "name": "_datasetId",
          "type": "bytes32"
        }
      ],
      "name": "getGenomeMetadata",
      "outputs": [
        {
          "components": [
            {
              "internalType": "bytes32",
              "name": "datasetHash",
              "type": "bytes32"
            },
            {
              "internalType": "string",
              "name": "ipfsCID",
              "type": "string"
            },
            {
              "internalType": "address",
              "name": "owner",
              "type": "address"
            },
            {
              "internalType": "uint256",
              "name": "timestamp",
              "type": "uint256"
            },
            {
              "internalType": "uint256",
              "name": "price",
              "type": "uint256"
            },
            {
              "internalType": "bool",
              "name": "isActive",
              "type": "bool"
            },
            {
              "internalType": "string",
              "name": "signatureHash",
              "type": "string"
            },
            {
              "internalType": "string",
              "name": "metadata",
              "type": "string"
            },
            {
              "internalType": "uint256",
              "name": "accessCount",
              "type": "uint256"
            }
          ],
          "internalType": "struct GenomeRegistry.GenomeDataset",
          "name": "",
          "type": "tuple"
        }
      ],
      "stateMutability": "view",
      "type": "function"
    },
    {
      "inputs": [
        {
          "internalType": "address",
          "name": "_owner",
          "type": "address"
        }
      ],
      "name": "getOwnerDatasets",
      "outputs": [
        {
          "internalType": "bytes32[]",
          "name": "",
          "type": "bytes32[]"
        }
      ],
      "stateMutability": "view",
      "type": "function"
    },
    {
      "inputs": [
        {
          "internalType": "bytes32",
          "name": "_datasetId",
          "type": "bytes32"
        }
      ],
      "name": "incrementAccessCount",
      "outputs": [],
      "stateMutability": "nonpayable",
      "type": "function"
    },
    {
      "inputs": [],
      "name": "owner",
      "outputs": [
        {
          "internalType": "address",
          "name": "",
          "type": "address"
        }
      ],
      "stateMutability": "view",
      "type": "function"
    },
    {
      "inputs": [
        {
          "internalType": "address",
          "name": "",
          "type": "address"
        },
        {
          "internalType": "uint256",
          "name": "",
          "type": "uint256"
        }
      ],
      "name": "ownerDatasets",
      "outputs": [
        {
          "internalType": "bytes32",
          "name": "",
          "type": "bytes32"
        }
      ],
      "stateMutability": "view",
      "type": "function"
    },
    {
      "inputs": [],
      "name": "pause",
      "outputs": [],
      "stateMutability": "nonpayable",
      "type": "function"
    },
    {
      "inputs": [],
      "name": "paused",
      "outputs": [
        {
          "internalType": "bool",
          "name": "",
          "type": "bool"
        }
      ],
      "stateMutability": "view",
      "type": "function"
    },
    {
      "inputs": [
        {
          "internalType": "bytes32",
          "name": "_datasetHash",
          "type": "bytes32"
        },
        {
          "internalType": "string",
          "name": "_ipfsCID",
          "type": "string"
        },
        {
          "internalType": "uint256",
          "name": "_price",
          "type": "uint256"
        },
        {
          "internalType": "string",
          "name": "_signatureHash",
          "type": "string"
        },
        {
          "internalType": "string",
          "name": "_metadata",
          "type": "string"
        }
      ],
      "name": "registerGenome",
      "outputs": [
        {
          "internalType": "bytes32",
          "name": "",
          "type": "bytes32"
        }
      ],
      "stateMutability": "nonpayable",
      "type": "function"
    },
    {
      "inputs": [],
      "name": "renounceOwnership",
      "outputs": [],
      "stateMutability": "nonpayable",
      "type": "function"
    },
    {
      "inputs": [
        {
          "internalType": "address",
          "name": "newOwner",
          "type": "address"
        }
      ],
      "name": "transferOwnership",
      "outputs": [],
      "stateMutability": "nonpayable",
      "type": "function"
    },
    {
      "inputs": [],
      "name": "unpause",
      "outputs": [],
      "stateMutability": "nonpayable",
      "type": "function"
    },
    {
      "inputs": [
        {
          "internalType": "bytes32",
          "name": "_datasetId",
          "type": "bytes32"
        },
        {
          "internalType": "uint256",
          "name": "_newPrice",
          "type": "uint256"
        }
      ],
      "name": "updatePrice",
      "outputs": [],
      "stateMutability": "nonpayable",
      "type": "function"
    }
  ],
  "bytecode": "0x608060405234801561001057600080fd5b5061001a3361002d565b600180556002805460ff1916905561007d565b600080546001600160a01b038381166001600160a01b0319831681178455604051919092169283917f8be0079c531659141344cd1fd0a4f28419497f9722a3daafe3b4186f6b6457e09190a35050565b611c1d8061008c6000396000f3fe608060405234801561001057600080fd5b50600436106101215760003560e01c80636a19f90d116100ad578063e98c434c11610071578063e98c434c1461026a578063f1767ffd1461027d578063f2fde38b14610290578063f764f3d0146102a3578063fd3ff6d3146102b657600080fd5b80636a19f90d14610202578063715018a61461022a5780638456cb59146102325780638da5cb5b1461023a578063c465f2f01461025557600080fd5b80635c975abb116100f45780635c975abb146101815780635f704f3e1461019757806360760415146101aa57806365b0ea8c146101ce578063668e84be146101ef57600080fd5b80630d7d45d8146101265780633261557d1461014f5780633f4ba83a146101645780634d72cd121461016c575b600080fd5b61013961013436600461150e565b6102c9565b604051610146919061156d565b60405180910390f35b61016261015d36600461150e565b6105b9565b005b6101626105de565b6101746105f0565b604051610146919061162a565b60025460ff166040519015158152602001610146565b6101626101a536600461166e565b610648565b6101bd6101b836600461150e565b6106fc565b604051610146959493929190611690565b6101e16101dc366004611727565b610860565b604051908152602001610146565b6101e16101fd3660046117f0565b610bcd565b61021561021036600461150e565b610bfe565b6040516101469998979695949392919061181a565b610162610def565b610162610e01565b6000546040516001600160a01b039091168152602001610146565b61025d610e11565b6040516101469190611899565b61016261027836600461150e565b610fbf565b61017461028b36600461194b565b611062565b61016261029e36600461194b565b6110ce565b6101e16102b136600461150e565b611147565b6101626102c436600461196d565b611168565b610326604051806101200160405280600080191681526020016060815260200160006001600160a01b0316815260200160008152602001600081526020016000151581526020016060815260200160608152602001600081525090565b60008281526003602052604090206002015482906001600160a01b031661038d5760405162461bcd60e51b815260206004820152601660248201527511185d185cd95d08191bd95cc81b9bdd08195e1a5cdd60521b60448201526064015b60405180910390fd5b6003600084815260200190815260200160002060405180610120016040529081600082015481526020016001820180546103c6906119fa565b80601f01602080910402602001604051908101604052809291908181526020018280546103f2906119fa565b801561043f5780601f106104145761010080835404028352916020019161043f565b820191906000526020600020905b81548152906001019060200180831161042257829003601f168201915b505050918352505060028201546001600160a01b031660208201526003820154604082015260048201546060820152600582015460ff161515608082015260068201805460a090920191610492906119fa565b80601f01602080910402602001604051908101604052809291908181526020018280546104be906119fa565b801561050b5780601f106104e05761010080835404028352916020019161050b565b820191906000526020600020905b8154815290600101906020018083116104ee57829003601f168201915b50505050508152602001600782018054610524906119fa565b80601f0160208091040260200160405190810160405280929190818152602001828054610550906119fa565b801561059d5780601f106105725761010080835404028352916020019161059d565b820191906000526020600020905b81548152906001019060200180831161058057829003601f168201915b5050505050815260200160088201548152505091505b50919050565b60008181526003602052604081206008018054916105d683611a2e565b919050555050565b6105e66111e7565b6105ee611241565b565b6060600680548060200260200160405190810160405280929190818152602001828054801561063e57602002820191906000526020600020905b81548152602001906001019080831161062a575b5050505050905090565b60008281526003602052604090206002015482906001600160a01b031633146106a75760405162461bcd60e51b81526020600482015260116024820152702737ba103230ba30b9b2ba1037bbb732b960791b6044820152606401610384565b600083815260036020526040908190206004018390555183907feaea071ba841fbbf531f6a3b854d78f90ccff3d077e0fac4f561fabb12690032906106ef9085815260200190565b60405180910390a2505050565b6005818154811061070c57600080fd5b906000526020600020906005020160009150905080600001805461072f906119fa565b80601f016020809104026020016040519081016040528092919081815260200182805461075b906119fa565b80156107a85780601f1061077d576101008083540402835291602001916107a8565b820191906000526020600020905b81548152906001019060200180831161078b57829003601f168201915b505050506001830154600284015460038501805494956001600160a01b0390931694919350906107d7906119fa565b80601f0160208091040260200160405190810160405280929190818152602001828054610803906119fa565b80156108505780601f1061082557610100808354040283529160200191610850565b820191906000526020600020905b81548152906001019060200180831161083357829003601f168201915b5050505050908060040154905085565b600061086a611293565b6108726112ec565b60408051602081018b90526bffffffffffffffffffffffff193360601b169181019190915242605482015260009060740160408051601f198184030181529181528151602092830120600081815260039093529120600201549091506001600160a01b0316156109245760405162461bcd60e51b815260206004820152601a60248201527f4461746173657420616c726561647920726567697374657265640000000000006044820152606401610384565b6040518061012001604052808b81526020018a8a8080601f0160208091040260200160405190810160405280939291908181526020018383808284376000920191909152505050908252503360208083019190915242604080840191909152606083018b9052600160808401528051601f8a0183900483028101830190915288815260a090920191908990899081908401838280828437600092019190915250505090825250604080516020601f88018190048102820181019092528681529181019190879087908190840183828082843760009201829052509385525050506020918201819052838152600382526040902082518155908201516001820190610a2e9082611ab6565b5060408201516002820180546001600160a01b0319166001600160a01b03909216919091179055606082015160038201556080820151600482015560a082015160058201805460ff191691151591909117905560c08201516006820190610a959082611ab6565b5060e08201516007820190610aaa9082611ab6565b506101009190910151600890910155336000818152600460209081526040808320805460018181018355918552838520018690556006805491820181559093527ff652222313e28459528d920b65115c16c04f3efc82aaedc97be59f3f377c0d3f90920184905581518083018352600c81526b75706c6f616447656e6f6d6560a01b818301528251601f8a01839004830281018301909352888352610b7093909290918591908b908b908190840183828082843760009201919091525061133292505050565b336001600160a01b0316817f7ee59365412755fea7ac1e8a7ec8d2988a6eb8be47c8e70a10824eb9b96c90688b8b8b604051610bae93929190611b76565b60405180910390a39050610bc160018055565b98975050505050505050565b60046020528160005260406000208181548110610be957600080fd5b90600052602060002001600091509150505481565b60036020526000908152604090208054600182018054919291610c20906119fa565b80601f0160208091040260200160405190810160405280929190818152602001828054610c4c906119fa565b8015610c995780601f10610c6e57610100808354040283529160200191610c99565b820191906000526020600020905b815481529060010190602001808311610c7c57829003601f168201915b505050600284015460038501546004860154600587015460068801805497986001600160a01b039095169793965091945060ff169291610cd8906119fa565b80601f0160208091040260200160405190810160405280929190818152602001828054610d04906119fa565b8015610d515780601f10610d2657610100808354040283529160200191610d51565b820191906000526020600020905b815481529060010190602001808311610d3457829003601f168201915b505050505090806007018054610d66906119fa565b80601f0160208091040260200160405190810160405280929190818152602001828054610d92906119fa565b8015610ddf5780601f10610db457610100808354040283529160200191610ddf565b820191906000526020600020905b815481529060010190602001808311610dc257829003601f168201915b5050505050908060080154905089565b610df76111e7565b6105ee6000611438565b610e096111e7565b6105ee611488565b60606005805480602002602001604051908101604052809291908181526020016000905b82821015610fb657838290600052602060002090600502016040518060a0016040529081600082018054610e68906119fa565b80601f0160208091040260200160405190810160405280929190818152602001828054610e94906119fa565b8015610ee15780601f10610eb657610100808354040283529160200191610ee1565b820191906000526020600020905b815481529060010190602001808311610ec457829003601f168201915b505050918352505060018201546001600160a01b0316602082015260028201546040820152600382018054606090920191610f1b906119fa565b80601f0160208091040260200160405190810160405280929190818152602001828054610f47906119fa565b8015610f945780601f10610f6957610100808354040283529160200191610f94565b820191906000526020600020905b815481529060010190602001808311610f7757829003601f168201915b5050505050815260200160048201548152505081526020019060010190610e35565b50505050905090565b60008181526003602052604090206002015481906001600160a01b0316331461101e5760405162461bcd60e51b81526020600482015260116024820152702737ba103230ba30b9b2ba1037bbb732b960791b6044820152606401610384565b600082815260036020526040808220600501805460ff191690555183917fd8c7d764bd5f37eda4a3566e6e8fe59e6dc65a060fcf063a2e0933d443f2497291a25050565b6001600160a01b0381166000908152600460209081526040918290208054835181840281018401909452808452606093928301828280156110c257602002820191906000526020600020905b8154815260200190600101908083116110ae575b50505050509050919050565b6110d66111e7565b6001600160a01b03811661113b5760405162461bcd60e51b815260206004820152602660248201527f4f776e61626c653a206e6577206f776e657220697320746865207a65726f206160448201526564647265737360d01b6064820152608401610384565b61114481611438565b50565b6006818154811061115757600080fd5b600091825260209091200154905081565b6111df86868080601f01602080910402602001604051908101604052809392919081815260200183838082843760009201919091525050604080516020601f880181900481028201810190925286815289935088925090879087908190840183828082843760009201919091525061133292505050565b505050505050565b6000546001600160a01b031633146105ee5760405162461bcd60e51b815260206004820181905260248201527f4f776e61626c653a2063616c6c6572206973206e6f7420746865206f776e65726044820152606401610384565b6112496114c5565b6002805460ff191690557f5db9ee0a495bf2e6ff9c91a7834c1ba4fdd244a5e8aa4e537bd38aeae4b073aa335b6040516001600160a01b03909116815260200160405180910390a1565b6002600154036112e55760405162461bcd60e51b815260206004820152601f60248201527f5265656e7472616e637947756172643a207265656e7472616e742063616c6c006044820152606401610384565b6002600155565b60025460ff16156105ee5760405162461bcd60e51b815260206004820152601060248201526f14185d5cd8589b194e881c185d5cd95960821b6044820152606401610384565b6040805160a0810182528581526001600160a01b038516602082015290810183905260608101829052426080820152600580546001810182556000829052825191027f036b6384b5eca791c62761152d0c79bb0604c104a5fb6f4eb0703f3154bb3db0019081906113a39082611ab6565b5060208201516001820180546001600160a01b0319166001600160a01b0390921691909117905560408201516002820155606082015160038201906113e89082611ab6565b506080820151816004015550507f77428cce1000573a729dd8e85de7b7a5930e14c607cd84ce8bfcb28667b0b2348484844260405161142a9493929190611baf565b60405180910390a150505050565b600080546001600160a01b038381166001600160a01b0319831681178455604051919092169283917f8be0079c531659141344cd1fd0a4f28419497f9722a3daafe3b4186f6b6457e09190a35050565b6114906112ec565b6002805460ff191660011790557f62e78cea01bee320cd4e420270b5ea74000d11b0c9f74754ebdbfc544b05a2586112763390565b60025460ff166105ee5760405162461bcd60e51b815260206004820152601460248201527314185d5cd8589b194e881b9bdd081c185d5cd95960621b6044820152606401610384565b60006020828403121561152057600080fd5b5035919050565b6000815180845260005b8181101561154d57602081850181015186830182015201611531565b506000602082860101526020601f19601f83011685010191505092915050565b602081528151602082015260006020830151610120806040850152611596610140850183611527565b915060408501516115b260608601826001600160a01b03169052565b5060608501516080850152608085015160a085015260a08501516115da60c086018215159052565b5060c0850151601f19808685030160e08701526115f78483611527565b935060e087015191506101008187860301818801526116168584611527565b970151959092019490945250929392505050565b6020808252825182820181905260009190848201906040850190845b8181101561166257835183529284019291840191600101611646565b50909695505050505050565b6000806040838503121561168157600080fd5b50508035926020909101359150565b60a0815260006116a360a0830188611527565b6001600160a01b03871660208401526040830186905282810360608401526116cb8186611527565b9150508260808301529695505050505050565b60008083601f8401126116f057600080fd5b50813567ffffffffffffffff81111561170857600080fd5b60208301915083602082850101111561172057600080fd5b9250929050565b60008060008060008060008060a0898b03121561174357600080fd5b88359750602089013567ffffffffffffffff8082111561176257600080fd5b61176e8c838d016116de565b909950975060408b0135965060608b013591508082111561178e57600080fd5b61179a8c838d016116de565b909650945060808b01359150808211156117b357600080fd5b506117c08b828c016116de565b999c989b5096995094979396929594505050565b80356001600160a01b03811681146117eb57600080fd5b919050565b6000806040838503121561180357600080fd5b61180c836117d4565b946020939093013593505050565b60006101208b83528060208401526118348184018c611527565b6001600160a01b038b166040850152606084018a90526080840189905287151560a085015283810360c0850152905061186d8187611527565b905082810360e08401526118818186611527565b915050826101008301529a9950505050505050505050565b60006020808301818452808551808352604092508286019150828160051b87010184880160005b8381101561193d57603f19898403018552815160a081518186526118e682870182611527565b838b01516001600160a01b0316878c0152898401518a880152606080850151888303828a0152919350915061191b8382611527565b60809485015197909401969096525050948701949250908601906001016118c0565b509098975050505050505050565b60006020828403121561195d57600080fd5b611966826117d4565b9392505050565b6000806000806000806080878903121561198657600080fd5b863567ffffffffffffffff8082111561199e57600080fd5b6119aa8a838b016116de565b90985096508691506119be60208a016117d4565b95506040890135945060608901359150808211156119db57600080fd5b506119e889828a016116de565b979a9699509497509295939492505050565b600181811c90821680611a0e57607f821691505b6020821081036105b357634e487b7160e01b600052602260045260246000fd5b600060018201611a4e57634e487b7160e01b600052601160045260246000fd5b5060010190565b634e487b7160e01b600052604160045260246000fd5b601f821115611ab157600081815260208120601f850160051c81016020861015611a925750805b601f850160051c820191505b818110156111df57828155600101611a9e565b505050565b815167ffffffffffffffff811115611ad057611ad0611a55565b611ae481611ade84546119fa565b84611a6b565b602080601f831160018114611b195760008415611b015750858301515b600019600386901b1c1916600185901b1785556111df565b600085815260208120601f198616915b82811015611b4857888601518255948401946001909101908401611b29565b5085821015611b665787850151600019600388901b60f8161c191681555b5050505050600190811b01905550565b604081528260408201528284606083013760006060848301015260006060601f19601f8601168301019050826020830152949350505050565b608081526000611bc26080830187611527565b6001600160a01b0395909516602083015250604081019290925260609091015291905056fea264697066735822122001df8aa315e37451db4a1501e5db268395e6e0e4e1134708ea13c5207979298d64736f6c63430008130033",
  "linkReferences": {},
  "deployedLinkReferences": {}
}