{
  "_format": "hh-sol-artifact-1",
  "contractName": "AccessControl",
  "sourceName": "contracts/AccessControl.sol",
  "abi": [
    {
      "inputs": [
        {
          "internalType": "address",
          "name": "_genomeRegistry",
          "type": "address"
        }
      ],
      "stateMutability": "nonpayable",
      "type": "constructor"
    },
    {
      "anonymous": false,
      "inputs": [
        {
          "indexed": true,
          "internalType": "bytes32",
          "name": "requestId",
          "type": "bytes32"
        },
        {
          "indexed": true,
          "internalType": "bytes32",
          "name": "datasetId",
          "type": "bytes32"
        },
        {
          "indexed": false,
          "internalType": "address",
          "name": "researcher",
          "type": "address"
        }
      ],
      "name": "AccessApproved",
      "type": "event"
    },
    {
      "anonymous": false,
      "inputs": [
        {
          "indexed": true,
          "internalType": "bytes32",
          "name": "requestId",
          "type": "bytes32"
        }
      ],
      "name": "AccessRejected",
      "type": "event"
    },
    {
      "anonymous": false,
      "inputs": [
        {
          "indexed": true,
          "internalType": "bytes32",
          "name": "requestId",
          "type": "bytes32"
        },
        {
          "indexed": true,
          "internalType": "bytes32",
          "name": "datasetId",
          "type": "bytes32"
        },
        {
          "indexed": false,
          "internalType": "address",
          "name": "researcher",
          "type": "address"
        }
      ],
      "name": "AccessRequested",
      "type": "event"
    },
    {
      "anonymous": false,
      "inputs": [
        {
          "indexed": true,
          "internalType": "bytes32",
          "name": "requestId",
          "type": "bytes32"
        }
      ],
      "name": "AccessRevoked",
      "type": "event"
    },
    {
      "inputs": [
        {
          "internalType": "bytes32",
          "name": "",
          "type": "bytes32"
        },
        {
          "internalType": "address",
          "name": "",
          "type": "address"
        }
      ],
      "name": "activeAccess",
      "outputs": [
        {
          "internalType": "bool",
          "name": "",
          "type": "bool"
        }
      ],
      "stateMutability": "view",
      "type": "function"
    },
    {
      "inputs": [
        {
          "internalType": "bytes32",
          "name": "_requestId",
          "type": "bytes32"
        },
        {
          "internalType": "string",
          "name": "_encryptedKeyHash",
          "type": "string"
        },
        {
          "internalType": "string",
          "name": "_ownerSignatureHash",
          "type": "string"
        }
      ],
      "name": "approveAccess",
      "outputs": [],
      "stateMutability": "nonpayable",
      "type": "function"
    },
    {
      "inputs": [
        {
          "internalType": "bytes32",
          "name": "",
          "type": "bytes32"
        },
        {
          "internalType": "uint256",
          "name": "",
          "type": "uint256"
        }
      ],
      "name": "datasetRequests",
      "outputs": [
        {
          "internalType": "bytes32",
          "name": "",
          "type": "bytes32"
        }
      ],
      "stateMutability": "view",
      "type": "function"
    },
    {
      "inputs": [],
      "name": "genomeRegistry",
      "outputs": [
        {
          "internalType": "contract IGenomeRegistry",
          "name": "",
          "type": "address"
        }
      ],
      "stateMutability": "view",
      "type": "function"
    },
    {
      "inputs": [
        {
          "internalType": "bytes32",
          "name": "_datasetId",
          "type": "bytes32"
        }
      ],
      "name": "getDatasetRequests",
      "outputs": [
        {
          "internalType": "bytes32[]",
          "name": "",
          "type": "bytes32[]"
        }
      ],
      "stateMutability": "view",
      "type": "function"
    },
    {
      "inputs": [
        {
          "internalType": "bytes32",
          "name": "_requestId",
          "type": "bytes32"
        }
      ],
      "name": "getRequest",
      "outputs": [
        {
          "components": [
            {
              "internalType": "bytes32",
              "name": "requestId",
              "type": "bytes32"
            },
            {
              "internalType": "bytes32",
              "name": "datasetId",
              "type": "bytes32"
            },
            {
              "internalType": "address",
              "name": "researcher",
              "type": "address"
            },
            {
              "internalType": "string",
              "name": "researchObjective",
              "type": "string"
            },
            {
              "internalType": "string",
              "name": "fundingSource",
              "type": "string"
            },
            {
              "internalType": "uint256",
              "name": "durationDays",
              "type": "uint256"
            },
            {
              "internalType": "uint256",
              "name": "timestamp",
              "type": "uint256"
            },
            {
              "internalType": "uint256",
              "name": "approvedAt",
              "type": "uint256"
            },
            {
              "internalType": "enum AccessControl.RequestStatus",
              "name": "status",
              "type": "uint8"
            },
            {
              "internalType": "string",
              "name": "signatureHash",
              "type": "string"
            },
            {
              "internalType": "string",
              "name": "encryptedKeyHash",
              "type": "string"
            }
          ],
          "internalType": "struct AccessControl.AccessRequest",
          "name": "",
          "type": "tuple"
        }
      ],
      "stateMutability": "view",
      "type": "function"
    },
    {
      "inputs": [
        {
          "internalType": "address",
          "name": "_researcher",
          "type": "address"
        }
      ],
      "name": "getResearcherRequests",
      "outputs": [
        {
          "internalType": "bytes32[]",
          "name": "",
          "type": "bytes32[]"
        }
      ],
      "stateMutability": "view",
      "type": "function"
    },
    {
      "inputs": [
        {
          "internalType": "bytes32",
          "name": "_datasetId",
          "type": "bytes32"
        },
        {
          "internalType": "address",
          "name": "_researcher",
          "type": "address"
        }
      ],
      "name": "hasActiveAccess",
      "outputs": [
        {
          "internalType": "bool",
          "name": "",
          "type": "bool"
        }
      ],
      "stateMutability": "view",
      "type": "function"
    },
    {
      "inputs": [
        {
          "internalType": "bytes32",
          "name": "_requestId",
          "type": "bytes32"
        }
      ],
      "name": "rejectAccess",
      "outputs": [],
      "stateMutability": "nonpayable",
      "type": "function"
    },
    {
      "inputs": [
        {
          "internalType": "bytes32",
          "name": "_datasetId",
          "type": "bytes32"
        },
        {
          "internalType": "string",
          "name": "_researchObjective",
          "type": "string"
        },
        {
          "internalType": "string",
          "name": "_fundingSource",
          "type": "string"
        },
        {
          "internalType": "uint256",
          "name": "_durationDays",
          "type": "uint256"
        },
        {
          "internalType": "string",
          "name": "_signatureHash",
          "type": "string"
        }
      ],
      "name": "requestAccess",
      "outputs": [
        {
          "internalType": "bytes32",
          "name": "",
          "type": "bytes32"
        }
      ],
      "stateMutability": "nonpayable",
      "type": "function"
    },
    {
      "inputs": [
        {
          "internalType": "bytes32",
          "name": "",
          "type": "bytes32"
        }
      ],
      "name": "requests",
      "outputs": [
        {
          "internalType": "bytes32",
          "name": "requestId",
          "type": "bytes32"
        },
        {
          "internalType": "bytes32",
          "name": "datasetId",
          "type": "bytes32"
        },
        {
          "internalType": "address",
          "name": "researcher",
          "type": "address"
        },
        {
          "internalType": "string",
          "name": "researchObjective",
          "type": "string"
        },
        {
          "internalType": "string",
          "name": "fundingSource",
          "type": "string"
        },
        {
          "internalType": "uint256",
          "name": "durationDays",
          "type": "uint256"
        },
        {
          "internalType": "uint256",
          "name": "timestamp",
          "type": "uint256"
        },
        {
          "internalType": "uint256",
          "name": "approvedAt",
          "type": "uint256"
        },
        {
          "internalType": "enum AccessControl.RequestStatus",
          "name": "status",
          "type": "uint8"
        },
        {
          "internalType": "string",
          "name": "signatureHash",
          "type": "string"
        },
        {
          "internalType": "string",
          "name": "encryptedKeyHash",
          "type": "string"
        }
      ],
      "stateMutability": "view",
      "type": "function"
    },
    {
      "inputs": [
        {
          "internalType": "address",
          "name": "",
          "type": "address"
        },
        {
          "internalType": "uint256",
          "name": "",
          "type": "uint256"
        }
      ],
      "name": "researcherRequests",
      "outputs": [
        {
          "internalType": "bytes32",
          "name": "",
          "type": "bytes32"
        }
      ],
      "stateMutability": "view",
      "type": "function"
    },
    {
      "inputs": [
        {
          "internalType": "bytes32",
          "name": "_requestId",
          "type": "bytes32"
        }
      ],
      "name": "revokeAccess",
      "outputs": [],
      "stateMutability": "nonpayable",
      "type": "function"
    }
  ],
  "bytecode": "0x608060405234801561001057600080fd5b50604051611a8b380380611a8b83398101604081905261002f91610059565b6001600081905580546001600160a01b0319166001600160a01b0392909216919091179055610089565b60006020828403121561006b57600080fd5b81516001600160a01b038116811461008257600080fd5b9392505050565b6119f3806100986000396000f3fe608060405234801561001057600080fd5b50600436106100cf5760003560e01c8063c26686db1161008c578063eae9335711610066578063eae93357146101fb578063ebd715a01461020e578063f73ad33314610247578063fb1e61ca1461025a57600080fd5b8063c26686db1461018a578063d04f6304146101aa578063de5f9f90146101e857600080fd5b80635bb91e52146100d45780637fd22804146100fa578063919ed479146101255780639d86698514610138578063add9c85714610162578063b1263ada14610177575b600080fd5b6100e76100e2366004611216565b61027a565b6040519081526020015b60405180910390f35b60015461010d906001600160a01b031681565b6040516001600160a01b0390911681526020016100f1565b6100e7610133366004611281565b6102ab565b61014b61014636600461132e565b610620565b6040516100f19b9a999897969594939291906113c5565b61017561017036600461132e565b6108a7565b005b61017561018536600461132e565b6109e3565b61019d610198366004611483565b610b5c565b6040516100f191906114a5565b6101d86101b83660046114e9565b600560209081526000928352604080842090915290825290205460ff1681565b60405190151581526020016100f1565b6101756101f6366004611515565b610bc8565b6100e761020936600461158f565b610e00565b6101d861021c3660046114e9565b60009182526005602090815260408084206001600160a01b0393909316845291905290205460ff1690565b61019d61025536600461132e565b610e1c565b61026d61026836600461132e565b610e7c565b6040516100f191906115b9565b6004602052816000526040600020818154811061029657600080fd5b90600052602060002001600091509150505481565b60006102b56111bd565b600089334286866040516020016102d09594939291906116a3565b60408051601f198184030181529181528151602092830120600081815260029384905291909120909101549091506001600160a01b03161561034a5760405162461bcd60e51b815260206004820152600e60248201526d526571756573742065786973747360901b60448201526064015b60405180910390fd5b6040518061016001604052808281526020018b8152602001336001600160a01b031681526020018a8a8080601f016020809104026020016040519081016040528093929190818152602001838380828437600092019190915250505090825250604080516020601f8b0181900481028201810190925289815291810191908a908a908190840183828082843760009201829052509385525050506020820188905242604083015260608201819052608090910190815260200185858080601f016020809104026020016040519081016040528093929190818152602001838380828437600092018290525093855250506040805160208082018352848252948501528583526002808552928190208551815593850151600185015584015191830180546001600160a01b0319166001600160a01b0390931692909217909155506060820151600382019061049e908261177c565b50608082015160048201906104b3908261177c565b5060a0820151600582015560c0820151600682015560e0820151600782015561010082015160088201805460ff191660018360038111156104f6576104f661138d565b02179055506101208201516009820190610510908261177c565b50610140820151600a820190610526908261177c565b5050336000818152600360209081526040808320805460018082018355918552838520018790558f8452600480845282852080548084018255908652939094209092018690559054905163fd3ff6d360e01b81526001600160a01b03909116935063fd3ff6d39261059f9290918f918a918a9101611865565b600060405180830381600087803b1580156105b957600080fd5b505af11580156105cd573d6000803e3d6000fd5b50506040513381528c92508391507f492bfa8bb4835774de5f4df5ac57618b71db3fd1961bce5328d88359a00ba0d09060200160405180910390a390506106146001600055565b98975050505050505050565b600260208190526000918252604090912080546001820154928201546003830180549294936001600160a01b039092169261065a906116f3565b80601f0160208091040260200160405190810160405280929190818152602001828054610686906116f3565b80156106d35780601f106106a8576101008083540402835291602001916106d3565b820191906000526020600020905b8154815290600101906020018083116106b657829003601f168201915b5050505050908060040180546106e8906116f3565b80601f0160208091040260200160405190810160405280929190818152602001828054610714906116f3565b80156107615780601f1061073657610100808354040283529160200191610761565b820191906000526020600020905b81548152906001019060200180831161074457829003601f168201915b50505060058401546006850154600786015460088701546009880180549798949793965091945060ff169291610796906116f3565b80601f01602080910402602001604051908101604052809291908181526020018280546107c2906116f3565b801561080f5780601f106107e45761010080835404028352916020019161080f565b820191906000526020600020905b8154815290600101906020018083116107f257829003601f168201915b50505050509080600a018054610824906116f3565b80601f0160208091040260200160405190810160405280929190818152602001828054610850906116f3565b801561089d5780601f106108725761010080835404028352916020019161089d565b820191906000526020600020905b81548152906001019060200180831161088057829003601f168201915b505050505090508b565b600081815260026020526040812090600882015460ff1660038111156108cf576108cf61138d565b1461090a5760405162461bcd60e51b815260206004820152600b60248201526a4e6f742070656e64696e6760a81b6044820152606401610341565b60088101805460ff19166002179055600180549082015460405163fd3ff6d360e01b815260806004820152600c60848201526b72656a65637441636365737360a01b60a4820152336024820152604481019190915260c06064820152600060c48201526001600160a01b039091169063fd3ff6d39060e401600060405180830381600087803b15801561099c57600080fd5b505af11580156109b0573d6000803e3d6000fd5b50506040518492507f55d666060f18aed0b8c0a4a89514141696ac1d397de5eb8109aea5ea2e5033f69150600090a25050565b6109eb6111bd565b60008181526002602052604090206001600882015460ff166003811115610a1457610a1461138d565b14610a505760405162461bcd60e51b815260206004820152600c60248201526b139bdd08185c1c1c9bdd995960a21b6044820152606401610341565b60088101805460ff1990811660031790915560018083018054600090815260056020908152604080832060028801546001600160a01b0390811685529252808320805490961690955592549154935163fd3ff6d360e01b815260806004820152600c60848201526b7265766f6b6541636365737360a01b60a4820152336024820152604481019490945260c0606485015260c4840152169063fd3ff6d39060e401600060405180830381600087803b158015610b0b57600080fd5b505af1158015610b1f573d6000803e3d6000fd5b50506040518492507f0135da073807bb75b5ac08972e9dd63b72d73a01c65a5ed22fc25a53ed750d2c9150600090a250610b596001600055565b50565b6001600160a01b038116600090815260036020908152604091829020805483518184028101840190945280845260609392830182828015610bbc57602002820191906000526020600020905b815481526020019060010190808311610ba8575b50505050509050919050565b610bd06111bd565b6000858152600260208190526040909120908101546001600160a01b0316610c2e5760405162461bcd60e51b815260206004820152601160248201527014995c5d595cdd081b9bdd08199bdd5b99607a1b6044820152606401610341565b6000600882015460ff166003811115610c4957610c4961138d565b14610c845760405162461bcd60e51b815260206004820152600b60248201526a4e6f742070656e64696e6760a81b6044820152606401610341565b60088101805460ff19166001179055426007820155600a8101610ca88587836118b1565b5060018181018054600090815260056020908152604080832060028701546001600160a01b039081168552925291829020805460ff191685179055925491549051633261557d60e01b81526004810191909152911690633261557d90602401600060405180830381600087803b158015610d2157600080fd5b505af1158015610d35573d6000803e3d6000fd5b5050600180549084015460405163fd3ff6d360e01b81526001600160a01b03909216935063fd3ff6d39250610d739133919088908890600401611971565b600060405180830381600087803b158015610d8d57600080fd5b505af1158015610da1573d6000803e3d6000fd5b50505050600181015460028201546040516001600160a01b03909116815287907fedc33a4d10212cf0b4859217d283971fbe5227da470388dbb93fc7c6e48820989060200160405180910390a350610df96001600055565b5050505050565b6003602052816000526040600020818154811061029657600080fd5b600081815260046020908152604091829020805483518184028101840190945280845260609392830182828015610bbc5760200282019190600052602060002090815481526020019060010190808311610ba85750505050509050919050565b610ed960408051610160810182526000808252602082018190529181018290526060808201819052608082015260a0810182905260c0810182905260e0810182905290610100820190815260200160608152602001606081525090565b60008281526002602081815260409283902083516101608101855281548152600182015492810192909252918201546001600160a01b031692810192909252600381018054606084019190610f2d906116f3565b80601f0160208091040260200160405190810160405280929190818152602001828054610f59906116f3565b8015610fa65780601f10610f7b57610100808354040283529160200191610fa6565b820191906000526020600020905b815481529060010190602001808311610f8957829003601f168201915b50505050508152602001600482018054610fbf906116f3565b80601f0160208091040260200160405190810160405280929190818152602001828054610feb906116f3565b80156110385780601f1061100d57610100808354040283529160200191611038565b820191906000526020600020905b81548152906001019060200180831161101b57829003601f168201915b5050509183525050600582015460208201526006820154604082015260078201546060820152600882015460809091019060ff16600381111561107d5761107d61138d565b600381111561108e5761108e61138d565b81526020016009820180546110a2906116f3565b80601f01602080910402602001604051908101604052809291908181526020018280546110ce906116f3565b801561111b5780601f106110f05761010080835404028352916020019161111b565b820191906000526020600020905b8154815290600101906020018083116110fe57829003601f168201915b50505050508152602001600a82018054611134906116f3565b80601f0160208091040260200160405190810160405280929190818152602001828054611160906116f3565b80156111ad5780601f10611182576101008083540402835291602001916111ad565b820191906000526020600020905b81548152906001019060200180831161119057829003601f168201915b5050505050815250509050919050565b60026000540361120f5760405162461bcd60e51b815260206004820152601f60248201527f5265656e7472616e637947756172643a207265656e7472616e742063616c6c006044820152606401610341565b6002600055565b6000806040838503121561122957600080fd5b50508035926020909101359150565b60008083601f84011261124a57600080fd5b50813567ffffffffffffffff81111561126257600080fd5b60208301915083602082850101111561127a57600080fd5b9250929050565b60008060008060008060008060a0898b03121561129d57600080fd5b88359750602089013567ffffffffffffffff808211156112bc57600080fd5b6112c88c838d01611238565b909950975060408b01359150808211156112e157600080fd5b6112ed8c838d01611238565b909750955060608b0135945060808b013591508082111561130d57600080fd5b5061131a8b828c01611238565b999c989b5096995094979396929594505050565b60006020828403121561134057600080fd5b5035919050565b6000815180845260005b8181101561136d57602081850181015186830182015201611351565b506000602082860101526020601f19601f83011685010191505092915050565b634e487b7160e01b600052602160045260246000fd5b600481106113c157634e487b7160e01b600052602160045260246000fd5b9052565b8b8152602081018b90526001600160a01b038a166040820152610160606082018190526000906113f78382018c611347565b9050828103608084015261140b818b611347565b90508860a08401528760c08401528660e084015261142d6101008401876113a3565b8281036101208401526114408186611347565b90508281036101408401526114558185611347565b9e9d5050505050505050505050505050565b80356001600160a01b038116811461147e57600080fd5b919050565b60006020828403121561149557600080fd5b61149e82611467565b9392505050565b6020808252825182820181905260009190848201906040850190845b818110156114dd578351835292840192918401916001016114c1565b50909695505050505050565b600080604083850312156114fc57600080fd5b8235915061150c60208401611467565b90509250929050565b60008060008060006060868803121561152d57600080fd5b85359450602086013567ffffffffffffffff8082111561154c57600080fd5b61155889838a01611238565b9096509450604088013591508082111561157157600080fd5b5061157e88828901611238565b969995985093965092949392505050565b600080604083850312156115a257600080fd5b6115ab83611467565b946020939093013593505050565b602081528151602082015260208201516040820152600060408301516115ea60608401826001600160a01b03169052565b506060830151610160806080850152611607610180850183611347565b91506080850151601f19808685030160a08701526116258483611347565b935060a087015160c087015260c087015160e087015260e08701519150610100828188015280880151925050610120611660818801846113a3565b8088015192505061014081878603018188015261167d8584611347565b9088015187820390920184880152935090506116998382611347565b9695505050505050565b8581526bffffffffffffffffffffffff198560601b1660208201528360348201528183605483013760009101605401908152949350505050565b634e487b7160e01b600052604160045260246000fd5b600181811c9082168061170757607f821691505b60208210810361172757634e487b7160e01b600052602260045260246000fd5b50919050565b601f82111561177757600081815260208120601f850160051c810160208610156117545750805b601f850160051c820191505b8181101561177357828155600101611760565b5050505b505050565b815167ffffffffffffffff811115611796576117966116dd565b6117aa816117a484546116f3565b8461172d565b602080601f8311600181146117df57600084156117c75750858301515b600019600386901b1c1916600185901b178555611773565b600085815260208120601f198616915b8281101561180e578886015182559484019460019091019084016117ef565b508582101561182c5787850151600019600388901b60f8161c191681555b5050505050600190811b01905550565b81835281816020850137506000828201602090810191909152601f909101601f19169091010190565b60808152600d60808201526c7265717565737441636365737360981b60a082015260018060a01b038516602082015283604082015260c06060820152600061169960c08301848661183c565b67ffffffffffffffff8311156118c9576118c96116dd565b6118dd836118d783546116f3565b8361172d565b6000601f84116001811461191157600085156118f95750838201355b600019600387901b1c1916600186901b178355610df9565b600083815260209020601f19861690835b828110156119425786850135825560209485019460019092019101611922565b508682101561195f5760001960f88860031b161c19848701351681555b505060018560011b0183555050505050565b60808152600d60808201526c617070726f766541636365737360981b60a082015260018060a01b038516602082015283604082015260c06060820152600061169960c08301848661183c56fea2646970667358221220b1a9d562094a6be72bc48f3d99703a39c2daa6ded5b49d5da4a5c1cb8cd7e4d464736f6c63430008130033",
  "linkReferences": {},
  "deployedLinkReferences": {}
}